:100000000C942A000C9437030C9447000C9447007E
:100010000C9447000C9447000C9447000C94470044
:100020000C9447000C9447000C9447000C949D03DB
:100030000C9447000C9447000C9447000C94470024
:100040000C9447000C9447000C9447000C94470014
:100050000C94470011241FBECFE5D8E0DEBFCDBF12
:1000600010E0A0E6B0E0E6E4FAE002C005900D92F0
:10007000AA39B107D9F720E0AAE9B0E001C01D9282
:10008000A53AB207E1F70E9449000C9421050C94AF
:1000900000000E94F1010E94C8020E941D010E94FE
:1000A0002A020E9402030E94200370939B00609327
:1000B0009A000E942A0285E090E00E94E90280E610
:1000C00090E00E94760260919A0070919B0080E01F
:1000D00090E00E948B0262E082E00E94A9022FEF72
:1000E00084E39CE0215080409040E1F700C0000094
:1000F00080919A0090919B008397C0F060E080E02F
:100100000E943C0160E081E00E943C010E942A02C2
:100110008BE690E00E9476022FEF82E597E0215077
:1001200080409040E1F700C00000BDCF80919A0070
:1001300090919B00839708F0B6CF87E090E00E94F3
:10014000E9020E94200370939B0060939A008091C3
:100150009A0090919B008497C0F00E942A0283E746
:1001600090E00E94760260E080E00E943C012FEF68
:1001700082E597E0215080409040E1F700C0000008
:1001800085E090E00E94E9028ECF80919A009091E4
:100190009B00839708F087CF8AE090E00E94E902F5
:1001A0000E94200370939B0060939A0080919A00B4
:1001B00090919B008497C0F00E942A0289E790E00A
:1001C0000E94760260E080E00E943C012FEF8DE308
:1001D00099E4215080409040E1F700C0000085E0A4
:1001E00090E00E94E9025FCF80919A0090919B007D
:1001F000839708F058CF0E942A028EE790E00E9471
:10020000760260E080E00E943C0161E081E00E94B3
:100210003C012FEF83EC99E0215080409040E1F7C2
:1002200000C0000080E00E94840181E00E948401FF
:1002300085E090E00E94E90236CF41E064E083E08F
:100240000E94C20341E065E083E00E94C20341E0F6
:1002500063E082E00E94C20341E064E082E00E9429
:10026000C20341E065E082E00E94C20341E066E033
:1002700082E00E94C2030895CF93C62F882319F00D
:10028000813009F13FC041E064E083E00E94330423
:10029000CC2319F0C13061F035C041E063E082E069
:1002A0000E94330440E064E082E00E9433042AC0EC
:1002B00040E063E082E00E94330441E064E082E0D9
:1002C0000E9433041FC041E065E083E00E943304D4
:1002D000CC2319F0C13061F015C041E065E082E047
:1002E0000E94330440E066E082E00E9433040AC0CA
:1002F00040E065E082E00E94330441E066E082E095
:100300000E943304CF910895882319F0813089F039
:10031000089540E064E083E00E94330440E063E03D
:1003200082E00E94330440E064E082E00E943304F3
:10033000089540E065E083E00E94330440E065E01A
:1003400082E00E94330440E066E082E00E943304D1
:100350000895CF93C82F40E061E081E00E9433040C
:1003600040E062E081E00E94330440E063E081E02D
:100370000E9433048BB39C2F907F8F70892B8BBB93
:1003800041E063E081E00E9433048FE99FE0019740
:10039000F1F700C0000040E063E081E00E94330418
:1003A0002BB330E1C39FC0011124922F9F70892B82
:1003B0008BBB41E063E081E00E9433048FE99FE062
:1003C0000197F1F700C0000040E063E081E00E9487
:1003D00033048FE19EE40197F1F700C00000CF9154
:1003E000089541E061E081E00E94C20341E062E0E3
:1003F00081E00E94C20341E063E081E00E94C20309
:1004000041E064E080E00E94C20341E065E080E0FA
:100410000E94C20341E066E080E00E94C20341E026
:1004200067E080E00E94C20383E30E94A90182E3A7
:100430000E94A90188E20E94A90182E00E94A9010C
:100440008CE00E94A90181E00E94A90186E00E943F
:10045000A901089581E00E94A9010895CF93C82FB2
:1004600041E061E081E00E94330440E062E081E02D
:100470000E94330440E063E081E00E9433048BB3C8
:100480009C2F907F8F70892B8BBB41E063E081E0D4
:100490000E9433048FE99FE00197F1F700C000004C
:1004A00040E063E081E00E9433042BB330E1C39F5E
:1004B000C0011124922F9F70892B8BBB41E063E018
:1004C00081E00E9433048FE99FE00197F1F700C0BB
:1004D000000040E063E081E00E9433048FE19EE48D
:1004E0000197F1F700C00000CF910895CF93DF93FB
:1004F000EC018881882361F021960E942E028FE30F
:100500009CE90197F1F700C0000089918111F5CFB6
:10051000DF91CF910895CF93DF93CDB7DEB72A97C0
:100520000FB6F894DEBF0FBECDBF2AE030E0AE01BB
:100530004F5F5F4F0E94D504CE0101960E94760264
:100540002A960FB6F894DEBF0FBECDBFDF91CF91D4
:100550000895882319F0813061F016C0603128F4C5
:1005600080E8860F0E94A901089580E80E94A901F1
:100570000895603128F480EC860F0E94A901089547
:1005800080EC0E94A901089580E80E94A9010895C5
:100590008D9A8EB580618EBD8EB588608EBD8FB50B
:1005A00082608FBD8FB58E7F8FBD8FB580688FBD08
:1005B0008FB58F7B8FBD8EB584608EBD8EB58D7FE0
:1005C0008EBD8EB58E7F8EBD82EE94E097BD86BDCA
:1005D000089546B557B59C01429FC001439F900DB9
:1005E000529F900D11249C0136952795369527959D
:1005F000ABE7B4E10E94C6049695879501979BBD31
:100600008ABD089513BE83B7877F83BF83B78F7B6F
:1006100083BF81E083BF89B7816089BF789441E05F
:1006200063E083E00E94C20340E062E083E00E9456
:10063000C2038BB780648BBF85B7816085BF089587
:1006400041E063E083E00E94330480E58A95F1F79E
:1006500040E063E083E00E94330481E08093A000E7
:100660006091A3007091A40080E090E008951F9233
:100670000F920FB60F9211242F933F934F935F93D6
:100680006F937F938F939F93AF93BF93EF93FF935A
:100690008091A000813009F03FC08091A10090912D
:1006A000A200019751F522B780919C0090919D0086
:1006B000A0919E00B0919F00BA2FA92F982F882754
:1006C000BC01CD01620F711D811D911D22ED31E034
:1006D00040E050E00E94A4043093A4002093A300C3
:1006E00010929C0010929D0010929E0010929F000C
:1006F0001092A2001092A1000FC012BE81E090E003
:100700009093A2008093A10010929C0010929D00F3
:1007100010929E0010929F00FF91EF91BF91AF91B8
:100720009F918F917F916F915F914F913F912F9109
:100730000F900FBE0F901F9018951F920F920FB63B
:100740000F9211248F939F93AF93BF9380919C003E
:1007500090919D00A0919E00B0919F000196A11DD7
:10076000B11D80939C0090939D00A0939E00B09338
:100770009F00BF91AF919F918F910F900FBE0F90EF
:100780001F901895442319F04130C9F10895813024
:1007900091F028F08230D9F0833029F108952AB3FE
:1007A00081E090E002C0880F991F6A95E2F780957A
:1007B00082238ABB089527B381E090E002C0880FAE
:1007C000991F6A95E2F78095822387BB089524B329
:1007D00081E090E002C0880F991F6A95E2F780954A
:1007E000822384BB089521B381E090E002C0880F8A
:1007F000991F6A95E2F78095822381BB0895813025
:1008000089F028F08230C9F0833011F108952AB3BD
:1008100081E090E002C0880F991F6A95E2F7822B71
:100820008ABB089527B381E090E002C0880F991F2A
:100830006A95E2F7822B87BB089524B381E090E0AC
:1008400002C0880F991F6A95E2F7822B84BB089536
:1008500021B381E090E002C0880F991F6A95E2F70A
:10086000822B81BB0895442319F04130C9F10895CA
:10087000813091F028F08230D9F0833029F1089549
:100880002BB381E090E002C0880F991F6A95E2F7D0
:10089000809582238BBB089528B381E090E002C04D
:1008A000880F991F6A95E2F78095822388BB089587
:1008B00025B381E090E002C0880F991F6A95E2F7A6
:1008C0008095822385BB089522B381E090E002C029
:1008D000880F991F6A95E2F78095822382BB08955D
:1008E000813089F028F08230C9F0833011F1089509
:1008F0002BB381E090E002C0880F991F6A95E2F760
:10090000822B8BBB089528B381E090E002C0880F52
:10091000991F6A95E2F7822B88BB089525B381E081
:1009200090E002C0880F991F6A95E2F7822B85BB81
:10093000089522B381E090E002C0880F991F6A9564
:10094000E2F7822B82BB0895A1E21A2EAA1BBB1BE1
:10095000FD010DC0AA1FBB1FEE1FFF1FA217B3078B
:10096000E407F50720F0A21BB30BE40BF50B661FA1
:10097000771F881F991F1A9469F760957095809565
:1009800090959B01AC01BD01CF010895A29FB001DC
:10099000B39FC001A39F700D811D1124911DB29FB3
:1009A000700D811D1124911D08952532310520F40B
:1009B000223010F00C94E004FA011082CA0108956C
:1009C000BB272A3051F4992342F4BDE290958095DB
:1009D000709561957F4F8F4F9F4F0C94F004BB270C
:1009E000FA01A62F6217710581059105330B30FBC3
:1009F00066F0AA27660F771F881F991FAA1FA217E4
:100A000010F0A21B63953850A9F7A05DAA3308F037
:100A1000A95DA19336F7B111B1931082CA010C946C
:100A20001105DC01FC01672F71917723E1F7329703
:100A300004C07C916D9370836291AE17BF07C8F3B9
:060A40000895F894FFCFB9
:100A460064697374616E63653A2000666F727761DC
:100A56007264007269676874006C65667400546835
:100A6600652063617220726F74617465732031381A
:0A0A76003020646567726565730047
:00000001FF
